:100000000C942A000C943C000C943C000C943C0092
:100010000C943C000C943C000C943C000C943C0070
:100020000C943C000C943C000C943C000C943C0060
:100030000C943C000C943C000C943C000C943C0050
:100040000C943C000C943C000C943C000C943C0040
:100050000C943C0011241FBECFE5D4E0DEBFCDBF21
:1000600020E0A0E6B0E001C01D92A136B207E1F7A2
:100070000E9469000C946B000C9400008CBF65BB5F
:10008000089587B38D7F87BB87B38B7F87BB87B38B
:10009000877F87BB8FEF84BB109260001CBE81E618
:1000A00083BFB09906C061E080E890E00E943E0006
:1000B000F8CFB19906C062E080E890E00E943E006F
:1000C000F0CFB299EECF60E080E090E00E943E0079
:0A00D000E8CF0E944100F894FFCF32
:00000001FF
